:100000006AC084C083C0F5C181C080C07FC07EC08B
:100010007DC0C9C77BC07AC079C078C077C076C0C0
:1000200075C074C073C072C071C070C06FC06EC044
:100030006DC06CC093CAB1CADBCAFCCA04CB27CB63
:1000400038CB0F23051927031E23031E23061B2766
:10005000011923021E0F2305342703312303312303
:1000600006342701342302311824071D24061524E1
:10007000061D24051527011D27011527021D27022E
:10008000153623053423063427033127013423038F
:100090003123023100233804273404203804213866
:1000A000230531270531240638435D505050475011
:1000B0005050504B505050500922033127031D20FF
:1000C000051D0927033220051D22031E09200532C4
:1000D00027031D22031E11241FBECFEFD4E0DEBF75
:1000E000CDBF11E0A0E0B1E0E4EAFBE102C0059081
:1000F0000D92AA32B107D9F721E0AAE2B1E001C01E
:100100001D92AE36B207E1F776DC4ACD79CF20E01A
:1001100030E02817390749F040E253E00000415031
:100120005109E1F72F5F3F4FF4CF089584B18C62FE
:1001300084B924982C9A8CB580618CBD8CB58D6067
:100140008CBD8CB580648CBD08958EBD0DB407FE4A
:10015000FDCF1C99FECF0895CF93DF93D62FC42FE8
:10016000F4DF8D2FF2DF8C2FDF91CF91EECF0F9345
:100170001F93CF93DF93162FD42FC22FE6DF812F4B
:10018000E4DF8D2FE2DF8C2FE0DF802FDF91CF9136
:100190001F910F91DACF8FEF9FE3909387008093A9
:1001A0008600109289001092880010928B001092A5
:1001B0008A00E0E8F0E08081806A8083808182604C
:1001C0008083E1E8F0E080818861808380818160C4
:1001D000808308958AB1806B8AB9219A229A569AAF
:1001E00020983D983C98399838983A983B9851987F
:1001F000509853985298289A459A449A419A409A0E
:10020000429A439A599A589A5B9A5A9A0895CF9368
:10021000DF93FB019B012C5F3F4FCAE0D0E0BE01A2
:100220000CDC805B8193CB01E217F307C1F7DF9110
:10023000CF9108950F931F93CF93DF938B0185DFA9
:10024000E8010C5F1F4F899180DFC017D107D9F7F4
:10025000DF91CF911F910F9108951F93CF93DF935B
:1002600000D000D0CDB7DEB7182FCB01212F2F7DC6
:10027000233421F46AE070E0E0DBCB01BE016F5F64
:100280007F4FC5DF812F877F833411F0133629F428
:100290008C81803511F48DE58C83BE016F5F7F4FBB
:1002A000812FC8DF0F900F900F900F90DF91CF91AB
:1002B0001F910895FF920F931F93CF93DF9300D068
:1002C00000D0CDB7DEB7F82E8B01CB0177FF04C08D
:1002D00088279927861B970BBE016F5F7F4F97DF9B
:1002E0008C81803551F48DE58C839B81903529F488
:1002F0008B839A81903509F48A8317FF0FC0073FDB
:100300008FEF18071CF08FE58A8308C00D391F4F47
:100310001CF08FE58B8302C08FE58C83BE016F5F7D
:100320007F4F8F2D87DF0F900F900F900F90DF91F1
:10033000CF911F910F91FF9008950F936AE071DBA9
:1003400000E5080F20E5290F4DE56DE58BE60FDF91
:100350000F9108950F939C0168EE73E06EDB00E54A
:10036000060FC90164E670E068DBCB016AE070E06B
:1003700064DB20E5280F4DE56DE58BE6F8DE0F9197
:100380000895E8E6F0E0808181608083EBE6F0E0AC
:1003900080818160808378940895E1EBF0E0808132
:1003A00083608083089585B5836085BD84B5836847
:1003B00084BD8FE787BD08951092B4008AE08093D2
:1003C000B20081E090916701933009F080E0809362
:1003D000680180917000816080937000B89AD89A0B
:1003E0008091B10083608093B10081E080936501CA
:1003F00008951F920F920FB60F9211248F931899A0
:100400000AC08091B1008C7F8093B1001092650189
:100410008BB1806B8BB98F910F900FBE0F901F9097
:1004200018952091540130915501A0915201B0913D
:10043000530168DB20E137E240E050E025DBB90101
:100440008BE40BCF9C0180916401811107C08091E6
:10045000090190910A018217930768F060E070E04B
:1004600083E4FBDE60E070E08BE4F7DE1092550180
:10047000109254010895E0910B01F0910C01A90133
:1004800060E070E09A01AB01281B390B410951096A
:10049000A0E2BEE44FDB9F0136952795620F731FE4
:1004A000811D911D9F0140E050E010DB309355010C
:1004B00020935401B90183E4D0DEB3CF0F931F938F
:1004C0009C0180916401811107C080910501909188
:1004D00006018217930778F060E070E087E4BDDEE4
:1004E00060E070E08BE4B9DE10925301109252018B
:1004F0001F910F910895E0910701F0910801A90162
:1005000060E070E09A01AB01281B390B41095109E9
:10051000A0EBB4E00FDB9F0136952795620F731FA8
:10052000811D911D9F0140E050E0D0DA89019A01C0
:10053000809154019091550168E677EF92DA060FA9
:10054000171F101611062CF410935301009352013B
:1005500004C01092530110925201609152017091A7
:10056000530187E47ADE1F910F915BCF20915901EF
:1005700021110FC02091570121110BC0DC012CE784
:100580003AEC42E050E0D6DA6C5F714C824C9D430D
:10059000E1CE08954B9B02C083E001C080E04A9BFE
:1005A00002C091E0892780936B0110926A0108953F
:1005B00080916A01982F937090936A018595859533
:1005C0000895FF920F931F93CF93DF93811102C081
:1005D000F12C02C080E1F82E02E310E0C0E0D0E090
:1005E0008BB18F7480698BB9E7DE809165018111D1
:1005F000FCCF8BB18F748F298BB9DEDE80916501C2
:100600008111FCCF8BB18F7480688BB9D5DE80915E
:1006100065018111FCCF2091B4008091B20090E07F
:10062000922B8C179D0721F41F5F153011F405C024
:1006300010E0015011F0EC01D3CFDF91CF911F9169
:100640000F91FF900895B4DF082E000C990B0097CE
:1006500019F410926901089521E020936901181698
:10066000190634F4809158018F3058F48F5F07C019
:10067000892B39F080915801882319F0815080939B
:1006800058018091580159DE1092560183E0809301
:1006900015010895CF93DF93EC01609113017091E0
:1006A0001401CB01A0E0B0E0DC0199278827BC0150
:1006B000CD01605F784D8F4F9F4F20E23EE440E0D8
:1006C00050E0E2D9DE0140DA2091110130911201AF
:1006D000820F931F9093890080938800C8398AE322
:1006E000D80714F081EB05C0C53A88E3D80714F4A5
:1006F00080EB2BDDBE0183E4DF91CF91AECDCF93B4
:10070000DF93EC0160910F0170911001CB01A0E02B
:10071000B0E0DC0199278827BC01CD01685A7D4FE4
:100720008F4F9F4F20EB34E040E050E0ADD9DE0129
:100730000BDA20910D0130910E01820F931F9093DF
:100740008B0080938A00BE0187E4DF91CF9185CD35
:1007500080915901811103C080915701811173CF9C
:1007600027DF282F811103C010926901089581E0CD
:100770008093690180915D01811130C06091180101
:10078000709119012603A001279F500D112480911B
:10079000620190916301840F951F97FF05C010922D
:1007A0006301109262010AC0803325E7920714F0BA
:1007B00080E395E7909363018093620180916201E9
:1007C0009091630167DF10925F0110925E018EE1EC
:1007D00080935C0181E080935B010895813059F53D
:1007E00060911601709117012603A001279F500DFB
:1007F00011248091600190916101840F951F97FFF2
:1008000005C010926101109260010AC0883B2BE084
:10081000920714F088EB9BE0909361018093600154
:1008200080916001909161016ADF8EE180935C01AB
:1008300081E080935A010895CF93DF93C0E0D0E028
:1008400060E070E0CE018BD92296C036D105C1F7A9
:10085000DF91CF910895BC0180E090E080C980E0F5
:1008600090E078C9BC0182E090E079C980915C0198
:10087000811111C080915B01882369F08091620130
:1008800090916301E8DF609162017091630183E6FA
:10089000E4DC10925B0180915C01811111C08091B8
:1008A0005A01882369F08091600190916101DADF3B
:1008B000609160017091610187E6CFDC10925A016E
:1008C000089582E090E046C9677090E1699FB001A9
:1008D00011248770682B7C6C84E090E040C90F93F2
:1008E0001F93CF93DF938C01EB0184E090E032D92A
:1008F0009C01222721153C4C61F4282F2770F80118
:1009000020838077992724E0969587952A95E1F7AB
:1009100004C087E0F801808381E08883DF91CF9174
:100920001F910F9108958EE090E014D921E0813A53
:100930009C4009F020E0822F089561EA7CE08EE07F
:1009400090E00DC9609111017091120180E190E079
:1009500006D9609113017091140182E190E0FFD8F3
:1009600060910D0170910E0184E190E0F8D86091E2
:100970000F017091100186E190E0F1D860910901BA
:1009800070910A0188E190E0EAD860910B017091C2
:100990000C018AE190E0E3D86091050170910601B5
:1009A0008CE190E0DCD860910701709108018EE144
:1009B00090E0D5D8C2CF80E190E0CCD890931201DE
:1009C0008093110182E190E0C5D890931401809347
:1009D000130184E190E0BED890930E0180930D0145
:1009E00086E190E0B7D89093100180930F0188E1E1
:1009F00090E0B0D890930A01809309018AE190E0D9
:100A0000A9D890930C0180930B018CE190E0A2D8BF
:100A100090930601809305018EE190E09BD890931E
:100A200008018093070108950F931F93CF93DF93DD
:100A30008A01C82FD0E02896CC0FDD1FCC0FDD1F18
:100A4000CE018DD8B801CE010296DF91CF911F91D2
:100A50000F9185C8EF92FF920F931F93CF93DF936F
:100A60007B018A01C82FD0E02896CC0FDD1FCC0F68
:100A7000DD1FCE016FD8F70191838083CE010296EE
:100A800069D8F80191838083DF91CF911F910F91F5
:100A9000FF90EF90089580915D0181111DC08091BC
:100AA0001801909119018A30910519F448E365E025
:100AB00005C08436910521F442E366E084E226C055
:100AC000883E23E0920711F448E3F7CF8031974244
:100AD000F1F442E367E0F2CF8091160190911701A3
:100AE0008130910511F448E304C08A30910519F46E
:100AF00042E362E00AC08436910511F448E304C081
:100B0000883E934021F442E361E087E225CB0895DB
:100B10000F931F93CF93DF938C01FC01D491C1E01D
:100B2000DC1738F0F801EC0FF11D84910EDBCF5F7C
:100B3000F7CFDF91CF911F910F91089581EA05DBE7
:100B400081E0809364010895CF93DF93DC0128EF67
:100B50003DEA42E050E0EED7DC01CB0180559B43FB
:100B6000AC4DBD43CD01AA27BB27EC012091590113
:100B7000211105C020915701211101C0EBDBCE01ED
:100B800064E670E05AD7EB016B34710518F0DF9121
:100B9000CF91D4CF6634710530F044E361E082E256
:100BA000DBDA8FEF0BC06534710579F041E161E06C
:100BB00082E2D2DAC432D10518F484E187BD05C0DF
:100BC000CF51D04CCC0FCC0FC7BDDF91CF91089542
:100BD000CF93DF93809165018111DCC08091670123
:100BE000811107C081E0809367018BB18F748069A8
:100BF00023C0813029F582E08093670180916601EE
:100C0000811103C08BB18F748BB9809166018130E3
:100C100021F48BB18F7480618BB980916601823031
:100C200021F48BB18F7480638BB98091660183301E
:100C300021F48BB18F7480628BB9DF91CF91BCCBE3
:100C4000823039F483E0809367018BB18F748068C0
:100C5000F3CF833009F09EC08091B400C091B20000
:100C6000D0E0D82B1092680180913501811155C0D8
:100C700080916901811151C080915C0181114DC049
:100C800080916601811143C0CE01DCDB809164015B
:100C900081113DC0E0910B01F0910C01AE0160E0CB
:100CA00070E08091090190910A019A01AB01281B23
:100CB000390B41095109A0E2BEE43CD79F013695AA
:100CC0002795620F731F811D911D9F0140E050E029
:100CD000FDD680916201909163012817390738F49D
:100CE00020915E0130915F012F5F3F4F09C0821755
:100CF000930768F420915E0130915F012150310922
:100D000030935F0120935E01820F931FC3DC8091BB
:100D10006601813011F4CE01D1DB80916601823011
:100D200011F4CE0123DC80916601833011F4CE01F1
:100D30000BDF20912A012F5F20932A01822F62E38B
:100D400070D6911102C082E010C0822F6AE069D68D
:100D5000911102C083E009C0822F67E062D6911131
:100D600003C01092660103C081E080936601109277
:100D7000670110926501ECDC80915C01882319F019
:100D8000815080935C0180911501882319F0815076
:100D900080931501DF91CF91089580EAD6D9109202
:100DA0006401089588E690E0B3CE82E490E0B0CE8E
:100DB0000F930DE52DE54DE56DE5D9D90F9108951A
:100DC00083E4F6DF87E4F4DF8BE4F2CF45E163E010
:100DD00087E2C2D98BE6ECCFCF93DF9300D000D06F
:100DE000CDB7DEB780915901811104C080915701C0
:100DF0008823A9F180911501811131C0809156019C
:100E00008823C9F08091580198DA8091570188238E
:100E1000E1F0AE014D5F5F4FBE016F5F7F4F80918C
:100E2000580118DE69817A8183E617DA6B817C814B
:100E300087E613DA0AC08BE6BBDF8091570188236F
:100E400021F083E6B5DF87E6B3DF81E090915601BC
:100E5000911180E08093560183E0809315010F90FB
:100E60000F900F900F90DF91CF9108958091010125
:100E700090910201A0910301B0910401892B8A2B6A
:100E80008B2B71F481EC61D981E090E0A0E0B0E0BF
:100E90008093010190930201A0930301B093040198
:100EA00080912B0190912C01A0912D01B0912E01E8
:100EB0008093300190933101A0933201B0933301BC
:100EC000089580912F0181111EC04B9B02C093E0B9
:100ED00001C090E04A9B02C081E0982780916B019D
:100EE000891B80FF0EC090936B0190916A01915015
:100EF0008270890F80936A0110925F0110925E01E7
:100F000001C08111B3CF08950F931F93CF93DF9347
:100F1000E0916C01F0E0EE5DFE4F80819CE3899FE3
:100F2000E00111242097D1F18091010190910201FB
:100F3000A0910301B0910401892B8A2B8B2B71F1B5
:100F400080912B0190912C01A0912D01B0912E0147
:100F50000091300110913101209132013091330123
:100F6000BC01CD01601B710B820B930B2EE533E0AE
:100F700040E050E089D5CE01DD0FAA0BBB0B8217F4
:100F80009307A407B50750F480ECDFD81092010155
:100F9000109202011092030110920401DF91CF918F
:100FA0001F910F9108951F920F920FB60F92112467
:100FB0002F933F934F935F936F937F938F939F9361
:100FC000AF93BF93EF93FF938091B4008F5F8093B3
:100FD000B4008091B400803370F080916801811179
:100FE0000AC08091B1008C7F8093B100109265019E
:100FF0008BB1806B8BB980912B0190912C01A091CA
:101000002D01B0912E01BC01CD016F5F7F4F8F4F3D
:101010009F4F60932B0170932C0180932D0190932F
:101020002E012EE533E040E050E02ED5672B682BF3
:10103000692B09F469DFFF91EF91BF91AF919F9107
:101040008F917F916F915F914F913F912F910F9071
:101050000FBE0F901F901895CF938091640181115E
:1010600003C0C9B1C17001C0C2E080910001C817BE
:1010700081F0C13049F028F0C23049F488EB90E0AB
:1010800005C08CEC90E002C082EC90E041DDC093A2
:101090000001CF91089586DE88DE92DE44E366E0AB
:1010A00083E25AD860ED77E083E4D7D861E070E05E
:1010B00087E400C9CF93DF9300D0CDB7DEB788EEC9
:1010C00093E025D880EF41D8BE016F5F7F4FCE01FE
:1010D000029605DC8981811102C080EC01C081EC9F
:1010E00034D88A81885231D8D6DF88EB9BE00FD87C
:1010F00081E890E00DDD0F900F90DF91CF91089582
:1011000010925D01ACDB9093630180936201BC019E
:1011100083E6A3D8D6DB9093610180936001BC0184
:1011200087E69BD88091620190916301B3DA809148
:10113000600190916101E3CADF92EF92FF920F93F9
:101140001F93CF93DF93D82E811105C0E0908800C4
:10115000F090890004C0E0908A00F0908B00C0E01D
:10116000D0E0AFDE25DAC80FD11D87FDDA958E01FC
:101170000E0D1F1DD11005C010938900009388002B
:1011800004C010938B0000938A00BE0187E492D8BC
:101190003499E7CF87E40CDE8CE291E0B8D7BE014A
:1011A00087E488D888EE93E0B2D7C801DF91CF9169
:1011B0001F910F91FF90EF90DF90089541E363E05E
:1011C00082E2CAD788EC90E0A2D74EE163E082E2E7
:1011D000C3D788EC90E09BD73399F0CFDECD8F92C8
:1011E0009F92AF92BF92CF92DF92EF92FF920F93B6
:1011F0001F93CF93DF93CDB7DEB72C970FB6F8943C
:10120000DEBF0FBECDBF80911A0190911B01A0914E
:101210001C01B0911D0189879A87AB87BC871E820C
:101220001D8218861F8284E690E069DA64E670E029
:1012300087E613D84E0189E0880E911C6E0195E077
:10124000C90ED11CFE0131967F0111E577DC44E324
:1012500065E083E281D7F401A190B1904F01C5010F
:1012600019DA0CE52AE54BE5612F83E480D7B50157
:1012700083E6F3D787E49CDDA1DF8CEC90E048DCCB
:1012800048E362E087E268D788EC90E040D780E0EE
:1012900053DFF601819391936F0180E092D9F701BA
:1012A000819391937F011F5F133581F62D813E81DC
:1012B0008F819885821B930B909314018093130167
:1012C0009695879596958795281B390B3093120133
:1012D0002093110129813A818B819C81821B930B80
:1012E00090930C0180930B01969587959695879521
:1012F000281B390B30930A01209309012C960FB655
:10130000F894DEBF0FBECDBFDF91CF911F910F913B
:10131000FF90EF90DF90CF90BF90AF909F908F9015
:1013200008958F929F92AF92BF92CF92DF92EF92E9
:10133000FF920F931F93CF93DF93CDB7DEB72C9718
:101340000FB6F894DEBF0FBECDBF80911E01909105
:101350001F01A0912001B091210189879A87AB8755
:10136000BC871E821D8218861F8280EE9EE292D963
:1013700060EE7EE283E671D74E0189E0880E911C13
:101380006E0195E0C90ED11CFE0131967F0113E577
:10139000D5DB49E165E083E2DFD641E363E087E244
:1013A000DBD6F401A190B1904F01C501A8D90CE59D
:1013B0002AE54BE5612F83E4DAD6B50187E64DD700
:1013C00087E4F6DCFBDE82EC90E0A2DB88EC90E0C8
:1013D0009ED681E0B1DEF601819391936F0181E0A9
:1013E000F0D8F701819391937F011F5F153581F646
:1013F0002D813E818F819885821B930B90931001E4
:1014000080930F019695879596958795281B390BA4
:1014100030930E0120930D0129813A818B819C81AB
:10142000821B930B909308018093070196958795F3
:1014300096958795281B390B30930601209305015B
:101440002C960FB6F894DEBF0FBECDBFDF91CF91C3
:101450001F910F91FF90EF90DF90CF90BF90AF90D2
:101460009F908F9008955FDA8111A5DA5CDA882366
:1014700019F086B1857069F480EF67D648E361E2C0
:1014800084E06AD641E365E087E266D6A8DE49DFFC
:1014900059DA81E890E03CDB51CB0F93CF93C82F12
:1014A0000CE520E54DE56DE583E461D66C2F70E039
:1014B0006F5F7F4F87E4CF910F91FCC60F93CF935F
:1014C000C82F01E52BE54BE56DE583E450D6EC2F05
:1014D000F0E0EE5DFE4F608170E087E4CF910F9108
:1014E000E9C690912F01992339F0811105C020910F
:1014F0006401211101C022CBE82F8091350188239E
:1015000009F1E33081F0E63009F011C160916C011E
:1015100080916D01D9D985E590E0FADA43DCBBDA38
:101520001092350108958091340191E0811190E08D
:1015300090933401882319F080916D01AECF809192
:101540006C01BCCF9111F3C08E2F90E087309105D4
:1015500008F0EDC0FC01E65EFF4F09948091640144
:10156000811107C0EBDA10925F0110925E0180EBEF
:10157000ECC5809162019091630188399A4314F01F
:1015800081EBE3D5809162019091630183D88091D2
:10159000600190916101B3D800CC80915D0181110F
:1015A00013C08091180190911901803127E29207B0
:1015B000E8F44AE0489F9001499F300D1124309390
:1015C00019012093180112C0809116019091170102
:1015D000883E23E0920750F44AE0489F9001499FDB
:1015E000300D11243093170120931601DBDB2AC044
:1015F00080915D0181110FC08091180190911901B6
:101600008B30910598F36AE070E017D2709319015E
:1016100060931801EBCF80911601909117018230F1
:10162000910520F36AE070E008D27093170160938F
:101630001601DCCFB7DB81E090915D01911180E074
:1016400080935D0128CA8091570181110EC048E343
:1016500063E087E281D5809158016FD681E0809365
:10166000570185E0809315010FC0B0DB60916201E6
:101670007091630183E6F1D5609160017091610121
:1016800087E6EBD510925701109259010895809189
:101690005901811147C048E363E087E25DD580913D
:1016A00058014BD681E08093590185E08093150164
:1016B0003CC080915701811105C080915901811171
:1016C00026C0089540E651E062E671E0809158013D
:1016D000C1D98091620190916301DCD78091600152
:1016E000909161010CD8609162017091630183E671
:1016F000B4D5609160017091610187E6AED510921A
:101700005C0181E080935B0180935A010BC04091A2
:10171000600150916101609162017091630180915B
:10172000580182D953DB1092590110925701089544
:101730000F931F93CF93DF9394E0899FE0011124CF
:10174000FE01EA5CFE4F0081118122813381101677
:1017500011061206130694F440912B0150912C01AE
:1017600060912D0170912E01401B510B620B730B88
:10177000433351056105710508F0B3DECA5CDE4FE5
:10178000188219821A821B82DF91CF911F910F91CB
:1017900008950BDB07DB14DB48E362E087E2DCD46F
:1017A0006CE671E08DE691E09AD880916D0175DE6E
:1017B0001092340181E0809335010895CF93C82FB2
:1017C000833029F480913501811101C0E2DFC150DD
:1017D000C23008F058C080913A0190913B01A0912D
:1017E0003C01B0913D018F3F9F4FAF4FBF4F09F07C
:1017F0004AC080913E0190913F01A0914001B0917B
:1018000041018F3F9F4FAF4FBF4FE9F580914E0190
:1018100090914F01A0915001B0915101892B8A2BD9
:101820008B2B89F580914A0190914B01A0914C013D
:10183000B0914D01892B8A2B8B2B99F0CAE048E39C
:1018400063E087E289D488EC90E061D445E163E00D
:1018500087E282D488EC90E05AD4C15081F7CF91CE
:10186000EBC780912F01882339F04EE162E082E2DC
:1018700073D410922F0107C041E362E082E26CD47E
:1018800081E080932F01CF9108950F931F9394E0EF
:10189000899FF0011124DF01AA5CBE4F4D915D913B
:1018A0006D917C911397452B462B472B69F4409102
:1018B0002B0150912C0160912D0170912E014D93BF
:1018C0005D936D937C931397EA5CFE4F00811181C9
:1018D000228133810F3F9FEF190729073907C9F08C
:1018E00040912B0150912C0160912D0170912E019E
:1018F000401B510B620B730B493B5B40610571054B
:1019000040F04FEF5FEFBA014083518362837383EE
:1019100055DF1F910F91AACACF93C6B180E0C3FDD6
:1019200002C0B3DF01C004DF81E0C0FD02C0ADDF53
:1019300001C0FEDE82E0C2FD02C0A7DF01C0F8DE0A
:1019400083E0C1FD02C0A1DF01C0F2DE84E049995D
:1019500002C09BDF01C0ECDE85E0C5FD02C095DF63
:1019600001C0E6DE86E0C4FD02C08FDF01C0E0DE1C
:10197000CF91A7CA1DD6082E000C990B20913401D7
:1019800021111CC01816190654F480916D0187307E
:1019900088F591E0980F90936D0187520BC0892BC9
:1019A00049F180916D01882329F19FEF980F909361
:1019B0006D018952CAD380916D016FCD1816190639
:1019C0004CF480916C018730A8F48F5F80936C0198
:1019D00081EC0CC0892B71F080916C01882351F04F
:1019E000815080936C01811102C080ECAED3809154
:1019F0006C0164CD08959AD3EDD3D5D4CCD3CDD496
:101A0000C9D558DBBED42FDD99D87ADB2FD724DB9C
:101A100083DFE2D9DDD8809135018823B9F3AADFCD
:101A2000F5CF991B79E004C0991F961708F0961B13
:101A3000881F7A95C9F780950895AA1BBB1B51E1B1
:101A400007C0AA1FBB1FA617B70710F0A61BB70B2E
:101A5000881F991F5A95A9F780959095BC01CD01D3
:101A6000089597FB072E16F4009406D077FD08D052
:101A7000E4DF07FC05D03EF4909581959F4F0895D3
:101A8000709561957F4F0895A1E21A2EAA1BBB1B8A
:101A9000FD010DC0AA1FBB1FEE1FFF1FA217B3073A
:101AA000E407F50720F0A21BB30BE40BF50B661F50
:101AB000771F881F991F1A9469F760957095809514
:101AC00090959B01AC01BD01CF010895052E97FBB8
:101AD00016F400940FD057FD05D0D6DF07FC02D0D6
:101AE00046F408C050954095309521953F4F4F4F93
:101AF0005F4F089590958095709561957F4F8F4FBA
:101B00009F4F089505D0332312F48A1B9B0B0DC001
:101B1000A29FB001B39FC001A39F01D0B29F700DDF
:101B2000811D1124911D0895F3DFB7FF0895821BD5
:101B3000930B0895EDDFA59F900DB49F900DA49F8A
:101B4000800D911D11240895B7FFF4CFF3DF821BA0
:101B5000930B0895A8E1B0E042E050E005C012D038
:101B6000272F11C0DC01CB01FC01F999FECF06C083
:101B7000F2BDE1BDF89A319600B40D92415050404B
:101B8000B8F70895262FF999FECF1FBA92BD81BDEF
:101B900020BD0FB6F894FA9AF99A0FBE01960895EF
:041BA000F894FFCFE7
:101BA400FF010000000B018013A300F91A76007EE8
:101BB400167B002627056400E8038813A8612C011E
:0A1BC400DC050001050A1E3C78F064
:00000001FF
