:100000006AC084C083C0F5C181C080C07FC07EC08B
:100010007DC0DCC77BC07AC079C078C077C076C0AD
:1000200075C074C073C072C071C070C06FC06EC044
:100030006DC06CC0A6CAC4CAEECA0FCB17CB3ACBF0
:100040004BCB0F23051927031E23031E23061B2753
:10005000011923021E0F2305342703312303312303
:1000600006342701342302311824071D24061524E1
:10007000061D24051527011D27011527021D27022E
:10008000153623053423063427033127013423038F
:100090003123023100233804273404203804213866
:1000A000230531270531240638435D505050475011
:1000B0005050504B505050500922033127031D20FF
:1000C000051D0927033220051D22031E09200532C4
:1000D00027031D22031E11241FBECFEFD4E0DEBF75
:1000E000CDBF11E0A0E0B1E0E2EBFEE102C005907F
:1000F0000D92AA32B107D9F721E0AAE2B1E001C01E
:100100001D92AE36B207E1F789DCD1CE79CF20E07F
:1001100030E02817390749F040E253E00000415031
:100120005109E1F72F5F3F4FF4CF089584B18C62FE
:1001300084B924982C9A8CB580618CBD8CB58D6067
:100140008CBD8CB580648CBD08958EBD0DB407FE4A
:10015000FDCF1C99FECF0895CF93DF93D62FC42FE8
:10016000F4DF8D2FF2DF8C2FDF91CF91EECF0F9345
:100170001F93CF93DF93162FD42FC22FE6DF812F4B
:10018000E4DF8D2FE2DF8C2FE0DF802FDF91CF9136
:100190001F910F91DACF8FEF9FE3909387008093A9
:1001A0008600109289001092880010928B001092A5
:1001B0008A00E0E8F0E08081806A8083808182604C
:1001C0008083E1E8F0E080818861808380818160C4
:1001D000808308958AB1806B8AB9219A229A569AAF
:1001E00020983D983C98399838983A983B9851987F
:1001F000509853985298289A459A449A419A409A0E
:10020000429A439A599A589A5B9A5A9A0895CF9368
:10021000DF93FB019B012C5F3F4FCAE0D0E0BE01A2
:10022000A6DD805B8193CB01E217F307C1F7DF9175
:10023000CF9108950F931F93CF93DF938B0185DFA9
:10024000E8010C5F1F4F899180DFC017D107D9F7F4
:10025000DF91CF911F910F9108951F93CF93DF935B
:1002600000D000D0CDB7DEB7182FCB01212F2F7DC6
:10027000233421F46AE070E07ADDCB01BE016F5FC8
:100280007F4FC5DF812F877F833411F0133629F428
:100290008C81803511F48DE58C83BE016F5F7F4FBB
:1002A000812FC8DF0F900F900F900F90DF91CF91AB
:1002B0001F910895FF920F931F93CF93DF9300D068
:1002C00000D0CDB7DEB7F82E8B01CB0177FF04C08D
:1002D00088279927861B970BBE016F5F7F4F97DF9B
:1002E0008C81803551F48DE58C839B81903529F488
:1002F0008B839A81903509F48A8317FF0FC0073FDB
:100300008FEF18071CF08FE58A8308C00D391F4F47
:100310001CF08FE58B8302C08FE58C83BE016F5F7D
:100320007F4F8F2D87DF0F900F900F900F90DF91F1
:10033000CF911F910F91FF9008950F936AE00BDD0D
:1003400000E5080F20E5290F4DE56DE58BE60FDF91
:100350000F9108950F939C0168EE73E008DD00E5AE
:10036000060FC90164E670E002DDCB016AE070E0CF
:10037000FEDC20E5280F4DE56DE58BE6F8DE0F91FC
:100380000895E8E6F0E0808181608083EBE6F0E0AC
:1003900080818160808378940895E1EBF0E0808132
:1003A00083608083089585B5836085BD84B5836847
:1003B00084BD8FE787BD08951092B4008AE08093D2
:1003C000B20081E090916701933009F080E0809362
:1003D000680180917000816080937000B89AD89A0B
:1003E0008091B10083608093B10081E080936501CA
:1003F00008951F920F920FB60F9211248F931899A0
:100400000AC08091B1008C7F8093B1001092650189
:100410008BB1806B8BB98F910F900FBE0F901F9097
:1004200018952091540130915501A0915201B0913D
:100430005301EFDC20E137E240E050E0ACDCB901F1
:100440008BE40BCF9C0180916401811107C08091E6
:10045000090190910A018217930768F060E070E04B
:1004600083E4FBDE60E070E08BE4F7DE1092550180
:10047000109254010895E0910B01F0910C01A90133
:1004800060E070E09A01AB01281B390B410951096A
:10049000A0E2BEE4D6DC9F0136952795620F731F5C
:1004A000811D911D9F0140E050E097DC3093550184
:1004B00020935401B90183E4D0DEB3CFCF92DF9211
:1004C000EF92FF929C0180916401811107C080919D
:1004D0000501909106018217930788F060E070E0B3
:1004E00087E4BBDE60E070E08BE4B7DE109253017E
:1004F00010925201FF90EF90DF90CF900895E0911D
:100500000701F0910801A90160E070E09A01AB01D8
:10051000281B390B41095109A0EBB4E092DC9F0183
:1005200036952795620F731F811D911D9F0140E035
:1005300050E053DCB901330F880B990B1DDB6B01C5
:100540007C016091540170915501072E000C880BBD
:10055000990B12DB27E137EB41ED58E399DB9B0167
:10056000AC01C701B60170DAD4DA161617062CF4FE
:10057000709353016093520104C010925301109282
:100580005201609152017091530187E466DEFF9041
:10059000EF90DF90CF9045CF2091590121110FC0EE
:1005A0002091570121110BC0DC012CE73AEC42E00D
:1005B00050E047DC6C5F714C824C9D43CBCE08957C
:1005C0004B9B02C083E001C080E04A9B02C091E0E7
:1005D000892780936B0110926A01089580916A01C6
:1005E000982F937090936A01859585950895FF9251
:1005F0000F931F93CF93DF93811102C0F12C02C0A0
:1006000080E1F82E02E310E0C0E0D0E08BB18F74FF
:1006100080698BB9D1DE809165018111FCCF8BB1EE
:100620008F748F298BB9C8DE809165018111FCCF51
:100630008BB18F7480688BB9BFDE809165018111A9
:10064000FCCF2091B4008091B20090E0922B8C17E7
:100650009D0721F41F5F153011F405C010E0015013
:1006600011F0EC01D3CFDF91CF911F910F91FF904B
:100670000895B4DF082E000C990B009719F410921E
:100680006901089521E0209369011816190634F4D0
:10069000809158018F3058F48F5F07C0892B39F053
:1006A00080915801882319F08150809358018091DE
:1006B000580143DE1092560183E08093150108959E
:1006C000CF93DF93EC016091130170911401CB0182
:1006D000A0E0B0E0DC0199278827BC01CD01605F74
:1006E000784D8F4F9F4F20E23EE440E050E053DBD7
:1006F000DE01B1DB2091110130911201820F931FB5
:100700009093890080938800C8398AE3D80714F051
:1007100081EB05C0C53A88E3D80714F480EB15DDFA
:10072000BE0183E4DF91CF9198CDCF93DF93EC01AD
:1007300060910F0170911001CB01A0E0B0E0DC01ED
:1007400099278827BC01CD01685A7D4F8F4F9F4F55
:1007500020EB34E040E050E01EDBDE017CDB20914A
:100760000D0130910E01820F931F90938B008093A7
:100770008A00BE0187E4DF91CF916FCD809159014E
:10078000811103C080915701811173CF27DF282F7A
:10079000811103C010926901089581E0809369017D
:1007A00080915D01811130C0609118017091190133
:1007B0002603A001279F500D112480916201909182
:1007C0006301840F951F97FF05C01092630110927B
:1007D00062010AC0803325E7920714F080E395E7B1
:1007E0009093630180936201809162019091630113
:1007F00067DF10925F0110925E018EE180935C01D1
:1008000081E080935B010895813059F56091160174
:10081000709117012603A001279F500D112480918C
:10082000600190916101840F951F97FF05C01092A0
:100830006101109260010AC0883B2BE0920714F01E
:1008400088EB9BE09093610180936001809160014F
:10085000909161016ADF8EE180935C0181E0809379
:100860005A010895CF93DF93C0E0D0E060E070E0DC
:10087000CE01FCDA2296C036D105C1F7DF91CF91C7
:100880000895BC0180E090E0F1CA80E090E0E9CA00
:10089000BC0182E090E0EACA80915C01811111C044
:1008A00080915B01882369F08091620190916301DE
:1008B000E8DF609162017091630183E6CEDC109203
:1008C0005B0180915C01811111C080915A018823E4
:1008D00069F08091600190916101DADF60916001BF
:1008E0007091610187E6B9DC10925A01089582E0A7
:1008F00090E0B7CA677090E1699FB00111248770DA
:10090000682B7C6C84E090E0B1CA0F931F93CF9367
:10091000DF938C01EB0184E090E0A3DA9C012227B5
:1009200021153C4C61F4282F2770F8012083807733
:10093000992724E0969587952A95E1F704C087E0EA
:10094000F801808381E08883DF91CF911F910F911F
:1009500008958EE090E085DA21E0813A9C4009F02C
:1009600020E0822F089561EA7CE08EE090E07ECA6C
:10097000609111017091120180E190E077DA60914D
:1009800013017091140182E190E070DA60910D0121
:1009900070910E0184E190E069DA60910F0170912D
:1009A000100186E190E062DA6091090170910A011C
:1009B00088E190E05BDA60910B0170910C018AE1B3
:1009C00090E054DA60910501709106018CE190E0AD
:1009D0004DDA60910701709108018EE190E046DAEE
:1009E000C2CF80E190E03DDA909312018093110133
:1009F00082E190E036DA909314018093130184E150
:100A000090E02FDA90930E0180930D0186E190E043
:100A100028DA9093100180930F0188E190E021DAA9
:100A200090930A01809309018AE190E01ADA909389
:100A30000C0180930B018CE190E013DA9093060196
:100A4000809305018EE190E00CDA90930801809389
:100A5000070108950F931F93CF93DF938A01C82F47
:100A6000D0E02896CC0FDD1FCC0FDD1FCE01FED9C4
:100A7000B801CE010296DF91CF911F910F91F6C977
:100A8000EF92FF920F931F93CF93DF937B018A0125
:100A9000C82FD0E02896CC0FDD1FCC0FDD1FCE0174
:100AA000E0D9F70191838083CE010296DAD9F8016B
:100AB00091838083DF91CF911F910F91FF90EF90F1
:100AC000089580915D0181111DC080911801909160
:100AD00019018A30910519F448E365E005C08436B0
:100AE000910521F442E366E084E226C0883E23E0DB
:100AF000920711F448E3F7CF80319742F1F442E3D3
:100B000067E0F2CF80911601909117018130910535
:100B100011F448E304C08A30910519F442E362E01D
:100B20000AC08436910511F448E304C0883E93401E
:100B300021F442E361E087E20FCB08950F931F9306
:100B4000CF93DF938C01FC01D491C1E0DC1738F026
:100B5000F801EC0FF11D8491F8DACF5FF7CFDF9148
:100B6000CF911F910F91089581EAEFDA81E0809390
:100B700064010895CF93DF93DC0128EF3DEA42E062
:100B800050E05FD9DC01CB0180559B43AC4DBD43A8
:100B9000CD01AA27BB27EC0120915901211105C0E5
:100BA00020915701211101C0D5DBCE0164E670E030
:100BB000DED8EB016B34710518F0DF91CF91D4CF03
:100BC0006634710530F044E361E082E2C5DA8FEF0C
:100BD0000BC06534710579F041E161E082E2BCDA75
:100BE000C432D10518F484E187BD05C0CF51D04C83
:100BF000CC0FCC0FC7BDDF91CF910895CF93DF937A
:100C0000809165018111D9C080916701811107C070
:100C100081E0809367018BB18F74806923C081303C
:100C200029F582E08093670180916601811103C0FC
:100C30008BB18F748BB980916601813021F48BB1B7
:100C40008F7480618BB980916601823021F48BB101
:100C50008F7480638BB980916601833021F48BB1EE
:100C60008F7480628BB9DF91CF91A6CB823039F43B
:100C700083E0809367018BB18F748068F3CF8330FA
:100C800009F09BC08091B400C091B200D0E0D82B95
:100C90001092680180913501811155C080916901E0
:100CA000811151C080915C0181114DC0809166011C
:100CB000811143C0CE01C6DB8091640181113DC02A
:100CC000E0910B01F0910C01AE0160E070E08091C9
:100CD000090190910A019A01AB01281B390B4109C6
:100CE0005109A0E2BEE4ADD89F0136952795620F69
:100CF000731F811D911D9F0140E050E06ED88091CF
:100D00006201909163012817390738F420915E0140
:100D100030915F012F5F3F4F09C08217930768F43E
:100D200020915E0130915F012150310930935F01C4
:100D300020935E01820F931FC3DC80916601813096
:100D400011F4CE01BBDB80916601823011F4CE013B
:100D500023DC80916601833011F4CE010BDF2091FA
:100D60002A012F5F20932A01822F62E3F4D7911189
:100D700002C082E00DC0822F69E1EDD7911102C05F
:100D800083E006C020FD03C01092660103C081E02D
:100D9000809366011092670110926501EFDC8091EB
:100DA0005C01882319F0815080935C0180911501CA
:100DB000882319F0815080931501DF91CF91089518
:100DC00080EAC3D910926401089588E690E0B6CE17
:100DD00082E490E0B3CE0F930DE52DE54DE56DE592
:100DE000C6D90F91089583E4F6DF87E4F4DF8BE43E
:100DF000F2CF45E163E087E2AFD98BE6ECCFCF934A
:100E0000DF9300D000D0CDB7DEB7809159018111BA
:100E100004C0809157018823A9F1809115018111A7
:100E200031C0809156018823C9F08091580185DA3C
:100E3000809157018823E1F0AE014D5F5F4FBE0105
:100E40006F5F7F4F809158011BDE69817A8183E655
:100E500004DA6B817C8187E600DA0AC08BE6BBDFAF
:100E600080915701882321F083E6B5DF87E6B3DF61
:100E700081E090915601911180E08093560183E0CA
:100E8000809315010F900F900F900F90DF91CF91ED
:100E900008958091010190910201A0910301B09108
:100EA0000401892B8A2B8B2B71F481EC4ED981E0C4
:100EB00090E0A0E0B0E08093010190930201A09344
:100EC0000301B093040180912B0190912C01A0911A
:100ED0002D01B0912E018093300190933101A093A8
:100EE0003201B0933301089580912F0181111EC00A
:100EF0004B9B02C093E001C090E04A9B02C081E09E
:100F0000982780916B01891B80FF0EC090936B0125
:100F100090916A0191508270890F80936A011092BA
:100F20005F0110925E0101C08111B3CF08950F934C
:100F30001F93CF93DF93E0916C01F0E0EE5DFE4FE5
:100F400080819CE3899FE00111242097D1F1809159
:100F5000010190910201A0910301B0910401892B3C
:100F60008A2B8B2B71F180912B0190912C01A091F8
:100F70002D01B0912E01009130011091310120918D
:100F8000320130913301BC01CD01601B710B820B2A
:100F9000930B2EE533E040E050E0FDD6CE01DD0FAF
:100FA000AA0BBB0B82179307A407B50750F480EC7C
:100FB000CCD81092010110920201109203011092FC
:100FC0000401DF91CF911F910F9108951F920F920D
:100FD0000FB60F9211242F933F934F935F936F930C
:100FE0007F938F939F93AF93BF93EF93FF938091E2
:100FF000B4008F5F8093B4008091B400803370F0B0
:101000008091680181110AC08091B1008C7F80932A
:10101000B100109265018BB1806B8BB980912B016F
:1010200090912C01A0912D01B0912E01BC01CD0118
:101030006F5F7F4F8F4F9F4F60932B0170932C01F9
:1010400080932D0190932E012EE533E040E050E097
:10105000A2D6672B682B692B09F469DFFF91EF910A
:10106000BF91AF919F918F917F916F915F914F91C0
:101070003F912F910F900FBE0F901F901895CF9317
:1010800080916401811103C0C9B1C17001C0C2E087
:1010900080910001C81781F0C13049F028F0C230BA
:1010A00049F488EB90E005C08CEC90E002C082EC43
:1010B00090E044DDC0930001CF91089586DE88DE84
:1010C00092DE44E366E083E247D860ED77E083E4B4
:1010D000C4D862E070E087E4EDC8CF93DF9300D01E
:1010E000CDB7DEB788EE93E012D880EF2ED8BE01E0
:1010F0006F5F7F4FCE01029608DC8981811102C0AB
:1011000080EC01C081EC21D88A8188521ED8D6DFBC
:1011100088EB9BE0FCD781E890E010DD0F900F900A
:10112000DF91CF91089510925D01AFDB9093630141
:1011300080936201BC0183E690D8D9DB9093610172
:1011400080936001BC0187E688D88091620190910C
:101150006301B6DA8091600190916101E6CADF9285
:10116000EF92FF920F931F93CF93DF93D82E8111AD
:1011700005C0E0908800F090890004C0E0908A00EB
:10118000F0908B00C0E0D0E0AFDE28DAC80FD11DB0
:1011900087FDDA958E010E0D1F1DD11005C010932D
:1011A00089000093880004C010938B0000938A008C
:1011B000BE0187E47FD83499E7CF87E40CDE8CE268
:1011C00091E0A5D7BE0187E475D888EE93E09FD75C
:1011D000C801DF91CF911F910F91FF90EF90DF90A9
:1011E000089541E363E082E2B7D788EC90E08FD7BF
:1011F0004EE163E082E2B0D788EC90E088D7339983
:10120000F0CFDECD8F929F92AF92BF92CF92DF92BE
:10121000EF92FF920F931F93CF93DF93CDB7DEB77B
:101220002C970FB6F894DEBF0FBECDBF80911A0188
:1012300090911B01A0911C01B0911D0189879A8793
:10124000AB87BC871E821D8218861F8284E690E0D1
:101250006CDA64E670E087E600D84E0189E0880E1B
:10126000911C6E0195E0C90ED11CFE0131967F01E3
:1012700011E57ADC44E365E083E26ED7F401A190E6
:10128000B1904F01C5011CDA0CE52AE54BE5612F51
:1012900083E46DD7B50183E6E0D787E49CDDA1DF69
:1012A0008CEC90E04BDC48E362E087E255D788ECB9
:1012B00090E02DD780E053DFF601819391936F0189
:1012C00080E095D9F701819391937F011F5F1335DA
:1012D00081F62D813E818F819885821B930B90939F
:1012E0001401809313019695879596958795281BF1
:1012F000390B309312012093110129813A818B819E
:101300009C81821B930B90930C0180930B0196950B
:10131000879596958795281B390B30930A01209362
:1013200009012C960FB6F894DEBF0FBECDBFDF913A
:10133000CF911F910F91FF90EF90DF90CF90BF90D2
:10134000AF909F908F9008958F929F92AF92BF928F
:10135000CF92DF92EF92FF920F931F93CF93DF9381
:10136000CDB7DEB72C970FB6F894DEBF0FBECDBF5A
:1013700080911E0190911F01A0912001B091210147
:1013800089879A87AB87BC871E821D8218861F8239
:1013900080EE9EE295D960EE7EE283E65ED74E0156
:1013A00089E0880E911C6E0195E0C90ED11CFE01EA
:1013B00031967F0113E5D8DB49E165E083E2CCD6C5
:1013C00041E363E087E2C8D6F401A190B1904F01F8
:1013D000C501ABD90CE52AE54BE5612F83E4C7D6FF
:1013E000B50187E63AD787E4F6DCFBDE82EC90E0D5
:1013F000A5DB88EC90E08BD681E0B1DEF60181932D
:1014000091936F0181E0F3D8F701819391937F016C
:101410001F5F153581F62D813E818F819885821B56
:10142000930B9093100180930F0196958795969555
:101430008795281B390B30930E0120930D012981CC
:101440003A818B819C81821B930B9093080180933E
:1014500007019695879596958795281B390B3093AC
:101460000601209305012C960FB6F894DEBF0FBE3F
:10147000CDBFDF91CF911F910F91FF90EF90DF9043
:10148000CF90BF90AF909F908F90089562DA8111B6
:10149000A8DA5FDA882319F086B1857069F480EFE5
:1014A00054D648E361E284E057D641E365E087E241
:1014B00053D6A8DE49DF5CDA81E890E03FDB54CB0D
:1014C0000F93CF93C82F0CE520E54DE56DE583E440
:1014D0004ED66C2F70E06F5F7F4F87E4CF910F91F6
:1014E000E9C60F93CF93C82F01E52BE54BE56DE5DA
:1014F00083E43DD6EC2FF0E0EE5DFE4F608170E0BE
:1015000087E4CF910F91D6C690912F01992339F09E
:10151000811105C020916401211101C025CBE82F64
:1015200080913501882309F1E33081F0E63009F03C
:1015300011C160916C0180916D01DCD985E590E06D
:10154000FDDA43DCBEDA1092350108958091340152
:1015500091E0811190E090933401882319F08091FB
:101560006D01AECF80916C01BCCF9111F3C08E2F75
:1015700090E08730910508F0EDC0FC01E65EFF4F7A
:10158000099480916401811107C0EEDA10925F0125
:1015900010925E0180EBD9C5809162019091630148
:1015A00088399A4314F081EBD0D5809162019091F3
:1015B000630186D88091600190916101B6D800CC1A
:1015C00080915D01811113C08091180190911901E2
:1015D000803127E29207E8F44AE0489F9001499F52
:1015E000300D1124309319012093180112C08091FD
:1015F000160190911701883E23E0920750F44AE0CB
:10160000489F9001499F300D11243093170120937A
:101610001601DBDB2AC080915D0181110FC0809132
:101620001801909119018B30910598F36AE070E0F0
:101630009ED37093190160931801EBCF809116012E
:10164000909117018230910520F36AE070E08FD30A
:101650007093170160931601DCCFB7DB81E09091A6
:101660005D01911180E080935D012BCA809157014B
:1016700081110EC048E363E087E26ED58091580186
:101680005CD681E08093570185E0809315010FC0FF
:10169000B0DB609162017091630183E6DED56091F9
:1016A00060017091610187E6D8D5109257011092C0
:1016B0005901089580915901811147C048E363E0C1
:1016C00087E24AD58091580138D681E0809359014C
:1016D00085E0809315013CC080915701811105C0C0
:1016E00080915901811126C0089540E651E062E6DB
:1016F00071E080915801C4D9809162019091630199
:10170000DFD780916001909161010FD860916201F3
:101710007091630183E6A1D56091600170916101D0
:1017200087E69BD510925C0181E080935B018093FA
:101730005A010BC0409160015091610160916201BA
:10174000709163018091580185D953DB1092590142
:101750001092570108950F931F93CF93DF9394E056
:10176000899FE0011124FE01EA5CFE4F0081118196
:1017700022813381101611061206130694F440914B
:101780002B0150912C0160912D0170912E01401B75
:10179000510B620B730B433351056105710508F062
:1017A000B3DECA5CDE4F188219821A821B82DF9177
:1017B000CF911F910F9108950BDB07DB14DB48E3FA
:1017C00062E087E2C9D46CE671E08DE691E09DD8D5
:1017D00080916D0175DE1092340181E080933501B6
:1017E0000895CF93C82F833029F48091350181115A
:1017F00001C0E2DFC150C23008F058C080913A0108
:1018000090913B01A0913C01B0913D018F3F9F4FD2
:10181000AF4FBF4F09F04AC080913E0190913F0108
:10182000A0914001B09141018F3F9F4FAF4FBF4FFB
:10183000E9F580914E0190914F01A0915001B09136
:101840005101892B8A2B8B2B89F580914A0190912C
:101850004B01A0914C01B0914D01892B8A2B8B2B10
:1018600099F0CAE048E363E087E276D488EC90E040
:101870004ED445E163E087E26FD488EC90E047D432
:10188000C15081F7CF91EEC780912F01882339F0A5
:101890004EE162E082E260D410922F0107C041E382
:1018A00062E082E259D481E080932F01CF910895C4
:1018B0000F931F9394E0899FF0011124DF01AA5C2C
:1018C000BE4F4D915D916D917C911397452B462BA9
:1018D000472B69F440912B0150912C0160912D010F
:1018E00070912E014D935D936D937C931397EA5CF9
:1018F000FE4F00811181228133810F3F9FEF190735
:1019000029073907C9F040912B0150912C016091B2
:101910002D0170912E01401B510B620B730B493B43
:101920005B406105710540F04FEF5FEFBA01408306
:1019300051836283738355DF1F910F91AACACF939E
:10194000C6B180E0C3FD02C0B3DF01C004DF81E0A7
:10195000C0FD02C0ADDF01C0FEDE82E0C2FD02C0FC
:10196000A7DF01C0F8DE83E0C1FD02C0A1DF01C036
:10197000F2DE84E0499902C09BDF01C0ECDE85E025
:10198000C5FD02C095DF01C0E6DE86E0C4FD02C0F1
:101990008FDF01C0E0DECF91A7CA20D6082E000C51
:1019A000990B2091340121111CC01816190654F40A
:1019B00080916D01873088F591E0980F90936D01CB
:1019C00087520BC0892B49F180916D01882329F141
:1019D0009FEF980F90936D018952B7D380916D015D
:1019E0006FCD181619064CF480916C018730A8F45D
:1019F0008F5F80936C0181EC0CC0892B71F080911A
:101A00006C01882351F0815080936C01811102C0D8
:101A100080EC9BD380916C0164CD089587D3DAD399
:101A2000C2D4B9D3BAD4CCD558DBABD42FDD9CD833
:101A30007ADB32D724DB83DFE2D9E0D8809135012D
:101A40008823B9F3AADFF5CF5058BB27AA270ED0B9
:101A5000E5C0D6D030F0DBD020F031F49F3F11F458
:101A60001EF4CBC00EF4E095E7FBC1C0E92FE7D030
:101A700080F3BA17620773078407950718F071F4AB
:101A80009EF5FFC00EF4E0950B2EBA2FA02D0B0192
:101A9000B90190010C01CA01A0011124FF27591BB3
:101AA00099F0593F50F4503E68F11A16F040A22FB9
:101AB000232F342F4427585FF3CF4695379527952A
:101AC000A795F0405395C9F77EF41F16BA0B620B29
:101AD000730B840BBAF09150A1F0FF0FBB1F661F70
:101AE000771F881FC2F70EC0BA0F621F731F841FB3
:101AF00048F4879577956795B795F7959E3F08F0D9
:101B0000B3CF9395880F08F09927EE0F9795879597
:101B1000089504D06894B111B5C0089598D088F0A4
:101B20009F5790F0B92F9927B751A0F0D1F0660FC9
:101B3000771F881F991F1AF0BA95C9F712C0B130E4
:101B400081F09FD0B1E008959CC0672F782F88273F
:101B5000B85F39F0B93FCCF3869577956795B39523
:101B6000D9F73EF490958095709561957F4F8F4F92
:101B70009F4F0895E89409C097FB3EF49095809597
:101B8000709561957F4F8F4F9F4F9923A9F0F92F43
:101B900096E9BB279395F695879577956795B795C1
:101BA000F111F8CFFAF4BB0F11F460FF1BC06F5FA7
:101BB0007F4F8F4F9F4F16C0882311F096E911C0B9
:101BC000772321F09EE8872F762F05C0662371F0DA
:101BD00096E8862F70E060E02AF09A95660F771FEE
:101BE000881FDAF7880F9695879597F9089597F9E2
:101BF0009F6780E870E060E008959FEF80EC0895B3
:101C000000240A94161617061806090608950024DB
:101C10000A9412161306140605060895092E039455
:101C2000000C11F4882352F0BB0F40F4BF2B11F4C9
:101C300060FF04C06F5F7F4F8F4F9F4F089557FD28
:101C40009058440F551F59F05F3F71F04795880F2A
:101C500097FB991F61F09F3F79F0879508951216C1
:101C600013061406551FF2CF4695F1DF08C016166D
:101C700017061806991FF1CF86957105610508941E
:101C80000895E894BB2766277727CB0197F9089535
:101C90000BD0C4CFB5DF28F0BADF18F0952309F0D8
:101CA000A6CFABCF1124EECFCADFA0F3959FD1F31F
:101CB000950F50E0551F629FF001729FBB27F00DFA
:101CC000B11D639FAA27F00DB11DAA1F649F66274F
:101CD000B00DA11D661F829F2227B00DA11D621F9E
:101CE000739FB00DA11D621F839FA00D611D221F58
:101CF000749F3327A00D611D231F849F600D211D3C
:101D0000822F762F6A2F11249F5750408AF0E1F0DE
:101D100088234AF0EE0FFF1FBB1F661F771F881F27
:101D200091505040A9F79E3F510570F060CFAACF67
:101D30005F3FECF3983EDCF3869577956795B79512
:101D4000F795E7959F5FC1F7FE2B880F911D96953C
:101D5000879597F90895991B79E004C0991F961704
:101D600008F0961B881F7A95C9F780950895AA1BDD
:101D7000BB1B51E107C0AA1FBB1FA617B70710F076
:101D8000A61BB70B881F991F5A95A9F780959095A8
:101D9000BC01CD010895A1E21A2EAA1BBB1BFD01B7
:101DA0000DC0AA1FBB1FEE1FFF1FA217B307E4073A
:101DB000F50720F0A21BB30BE40BF50B661F771F92
:101DC000881F991F1A9469F7609570958095909572
:101DD0009B01AC01BD01CF010895052E97FB16F4C0
:101DE00000940FD057FD05D0D6DF07FC02D046F493
:101DF00008C050954095309521953F4F4F4F5F4F0C
:101E0000089590958095709561957F4F8F4F9F4F66
:101E1000089505D0332312F48A1B9B0B0DC0A29F9B
:101E2000B001B39FC001A39F01D0B29F700D811D6F
:101E30001124911D0895F3DFB7FF0895821B930BC2
:101E40000895EDDFA59F900DB49F900DA49F800D88
:101E5000911D11240895B7FFF4CFF3DF821B930B7C
:101E60000895A8E1B0E042E050E005C012D0272F6D
:101E700011C0DC01CB01FC01F999FECF06C0F2BD17
:101E8000E1BDF89A319600B40D9241505040B8F738
:101E90000895262FF999FECF1FBA92BD81BD20BDAE
:101EA0000FB6F894FA9AF99A0FBE01960895F8942D
:021EB000FFCF62
:101EB200FF010000000B018013A300F91A76007ED7
:101EC200167B002627056400E8038813A8612C010D
:0A1ED200DC050001050A1E3C78F053
:00000001FF
